:100000000C9463000C948B000C948B000C948B006C
:100010000C948B000C948B000C948B000C948B0034
:100020000C948B000C948B000C948B000C948B0024
:100030000C948B000C948B000C948B000C948B0014
:100040000C9428070C948B000C948B000C948B0060
:100050000C948B000C948B000C948B000C948B00F4
:100060000C9479050C948B000000000024002700FC
:100070002A0000000000250028002B0000000000DE
:1000800023002600290004040404040404040202DA
:100090000202020203030303030301020408102007
:1000A0004080010204081020010204081020000012
:1000B0000007000201000003040600000000000029
:1000C00000008D00B60411241FBECFEFD8E0DEBFC4
:1000D000CDBF11E0A0E0B1E0E6E3F2E102C005909F
:1000E0000D92A233B107D9F712E0A2E3B1E001C04B
:1000F0001D92A03AB107E1F710E0C6ECD0E004C0D1
:100100002297FE010E941509C23CD107C9F70E943F
:1001100004090C9419090C940000EF920F9382E3E8
:1001200091E060E071E04CE051E020E131E004E07A
:10013000E3E0EE2E0E94D8030F91EF90089504C0E3
:100140008FEF91E00E9454048FEF91E00E944B04E6
:1001500018161906ACF381E08093A10108958FEF82
:1001600091E063E171E045E050E00E94CD04089524
:100170008DE060E00E945D0864E670E080E090E061
:100180000E948A078DE061E00E945D080895EF9269
:10019000FF920F931F93CF93DF938C017B01009706
:1001A00011F480E012C0C0E0D0E00BC082E391E027
:1001B0000E94CD03F801EC0FFD1F80830E94B80060
:1001C0002196CE15DF0594F381E0DF91CF911F9149
:1001D0000F91FF90EF90089564E670E080E090E06A
:1001E0000E948A078091A101882381F08DE061E05F
:1001F0000E945D0883E191E065E070E00E94C70025
:100200008DE060E00E945D081092A10108950F93B7
:100210001F938DE061E00E941E088DE060E00E9467
:100220005D080FEF11E0C80162E470E00E944D0527
:10023000C8016FEA70E00E94B104C8016FE970E084
:100240000E94AC041F910F9108952F923F924F92FC
:100250005F926F927F928F929F92AF92BF92CF9256
:10026000DF92EF92FF920F931F93DF93CF9300D013
:1002700000D0CDB7DEB79C838B8300E066E6A62E68
:10028000B12CA80EB91E52E6C52ED12CC80ED91E0F
:1002900013C0AB81BC818D919C91F601A081B1818D
:1002A000A00FB11DFC01208131818B819C816C915B
:1002B00042E0F90109950F5FD5018C91081748F3C9
:1002C000EE24EB81FC81E959FF4FFA83E98344E690
:1002D000A42EB12C8B819C81A80EB91E36E6232E4C
:1002E000312C280E391E22E6422E512C480E591E62
:1002F00092C0CE2CDD24AB81BC818D919C91D50127
:10030000ED91FC91EC0DFD1DDC012D913C918B815B
:100310009C81608141E0F9010995EB81FC8180813C
:100320009181D501ED91FC91EC0DFD1DDC01129642
:100330002D913C9113978B819C81608140E0F90164
:10034000099581E090E0A0E0B0E00E2C04C0880F99
:10035000991FAA1FBB1F0A94D2F74C013C0160945D
:100360007094FF242DC00F2D10E0D201ED91FC916F
:10037000E00FF11FD90114962D913C9115978B81B7
:100380009C816081F9010995F8013496892B59F413
:10039000EE0FFF1F8B819C81E80FF91F80819181F7
:1003A000882999290AC0EE0FFF1FAB81BC81EA0F93
:1003B000FB1F808191818621972191838083F39413
:1003C000F1018081AB81BC812D913C91F81658F2EE
:1003D000D501ED91FC91EC0DFD1DD90112962D91E9
:1003E0003C9113978B819C81608141E0F9010995D3
:1003F000EB81FC8180819181D501ED91FC91EC0D27
:10040000FD1DDC012D913C918B819C81608140E040
:10041000F9010995E394E981FA818081E81608F4ED
:1004200068CF0F900F900F900F90CF91DF911F9199
:100430000F91FF90EF90DF90CF90BF90AF909F9083
:100440008F907F906F905F904F903F902F90089586
:10045000CF93DF93DC01862F90E0FC01EE0FFF1FAE
:10046000E80FF91FEE0FFF1FEA0FFB1F50A3478F86
:1004700081E081A3A459BF4F8C91AC56B040ED01EF
:10048000C359DF4F882351F0E881F981309771F02B
:10049000662361F45C968C91099508C028813981A6
:1004A0002115310519F0848DF9010995DF91CF915E
:1004B00008950F931F93CF93DF93EC01162F042F12
:1004C000862F90E0FC01EE0FFF1FE80FF91FEE0FE3
:1004D000FF1FEC0FFD1F11A2878D90A181309105A8
:1004E000E1F0823091051CF4892B39F03FC0823055
:1004F000910581F10397D1F534C00130B9F5CE01F2
:1005000041E050E00E9428020E947C07C85ADF4F59
:10051000688379838A839B8329C00E947C07C85A99
:10052000DF4F288139814A815B81621B730B840B09
:10053000950B629628813981CA56D04040E050E040
:10054000261737074807590728F4CE01612F42E0E4
:1005500050E00AC0002351F4CE01612F43E050E087
:1005600003C0CE0140E050E00E942802DF91CF910D
:100570001F910F9108954F925F926F927F928F9289
:100580009F92AF92BF92DF92EF92FF920F931F93D1
:10059000CF93DF93EC01FC017C9620E04FEF5FEFFF
:1005A00083819481892B21F41082528341831582A7
:1005B0002F5F36962A30A1F7EE2406E6402E512C06
:1005C0004C0E5D1E17E6612E712C6C0E7D1EB0E682
:1005D0008B2E912C8C0E9D1E59C02F2D30E0D801F2
:1005E0008D919C910F2C02C0969587950A94E2F705
:1005F000DD24D394D822852F90E0A89EA001A99E47
:10060000500DB89E500D1124420F531FD401ED918F
:10061000FC91E40FF51F2081DE01FE0160E070E037
:10062000858D968D8417950719F4CE014D2D1EC02A
:100630006F5F7F4F36966A30710591F752C060E068
:1006400070E05C968C915C97882399F4FB01EE0F27
:10065000FF1FE60FF71FEE0FFF1FEC0FFD1F248F8C
:10066000568F458F10A2178ECE0141E00E9459028D
:1006700006C06F5F7F4F16966A30710511F7F394CD
:10068000F3015081F51608F4A8CFE394D2018C91C0
:10069000E81658F4FF24AE2CBB2485010C5F1F4FD5
:1006A000000F111F0C0F1D1FEBCFFE01B19620E0B4
:1006B00090E08081811121E09F5F36969A30C9F7E2
:1006C000822FDF91CF911F910F91FF90EF90DF90DC
:1006D000BF90AF909F908F907F906F905F904F9062
:1006E0000895DD2009F0ABCFCACFEF92FF921F93A0
:1006F000CF93DF93EC010E947C072CE5E22EF12CD6
:10070000EC0EFD1EF7012081318142815381621B75
:10071000730B840B950BC859DF4F28813981C8565C
:10072000D04040E050E0261737074807590710F03F
:1007300010E00EC0CE010E942501CE010E94BB0236
:10074000182F0E947C07F701608371838283938353
:10075000812FDF91CF911F91FF90EF900895CF935C
:10076000DF93EC01C459DF4F81E08883CC56D04041
:10077000CE010E947503882359F089A1882341F096
:100780008F8D98A1019721F48C8DDF91CF910895E1
:10079000C459DF4F188280E0F8CFCF93DF93EC018C
:1007A000CE010E94AF038823D9F3DF91CF91089542
:1007B0006F927F928F929F92AF92BF92CF92DF9271
:1007C000EF92FF920F931F93CF93DF93EC014B01B6
:1007D0006A015901702E6E2C02960E943F048CE132
:1007E00091E0998388833CE1E32EF12CEC0EFD1E11
:1007F00000E010E0C701800F911F0E9445040A5FCE
:100800001F4F0C331105B1F7CE59DF4FC992D99262
:10081000A992B992799268822797998288822896BC
:100820008AE090E08993999384EF91E0998388839B
:100830002396198218826197188219821A821B8264
:1008400060961882DF91CF911F910F91FF90EF90EA
:10085000DF90CF90BF90AF909F908F907F906F90E0
:100860000895862F0E94B1080895862F642F0E9454
:100870005D080895862F642F0E941E080895FC01CC
:1008800010821482138215820895FC011082148252
:100890001382158208952091CD0130E08091CC0122
:1008A000281B3109C90108954091CC018091CD01E7
:1008B000481718F02FEF3FEF0AC0E42FF0E0EE5595
:1008C000FE4F8081282F30E04F5F4093CC01C9015B
:1008D0000895E091CC018091CD01E81718F0EFEF79
:1008E000FFEF06C0F0E0EE55FE4F8081E82FF0E00C
:1008F000CF0108950895AC012091FD013091FE01D2
:1009000021153105E1F09091CC018091CD0198172E
:10091000B0F090E008C0FA01EA0FFB1F8081AE55ED
:10092000BE4F8C939F5FA92FB0E0A617B7079CF32B
:100930001092CC016093CD01CB01F9010995089586
:10094000E091FB01F091FC01309729F01092F80141
:100950001092F901099508957093FE016093FD01CD
:1009600008957093FC016093FB01089510920202B8
:100970001092010288EE93E0A0E0B0E080930302C1
:1009800090930402A0930502B093060286E291E0E0
:10099000909300028093FF010895CF92DF92EF922F
:1009A000FF920F931F93CF93DF937C016B018A011A
:1009B0008091FA018823A1F0C0E0D0E00DC0D701FA
:1009C000ED91FC91D601AC0FBD1F0190F081E02D9F
:1009D000C7016C9109952196C017D10780F304C017
:1009E000CB01642F0E945405C801DF91CF911F9164
:1009F0000F91FF90EF90DF90CF900895DF93CF930A
:100A00000F92CDB7DEB7FC0169838091FA0188238C
:100A1000C9F08091F9018A3238F081E090E0938347
:100A2000828320E030E015C08091F801E82FF0E0EB
:100A3000E253FE4F998190838F5F8093F8018093FA
:100A4000F90105C0CE01019661E00E94540521E044
:100A500030E0C9010F90CF91DF9108951092CC0141
:100A60001092CD011092F8011092F9010E940A072C
:100A700008950F931F938C01862F0E94500580EAE2
:100A800094E00E9474058BE794E00E946F05C80112
:100A90000E942E051F910F9108950E943905089517
:100AA000880F8093BA000895482F6B3210F081E0D0
:100AB000089580910B02843011F082E008956093D4
:100AC0006A02AFE3B2E0842F9C01F90102C0819178
:100AD0008D938E2F841B8617D0F380E0089590931A
:100AE00012028093110208959093100280930F02D6
:100AF00008951F920F920FB60F9211242F933F93D8
:100B00004F935F936F937F938F939F93AF93BF9315
:100B1000EF93FF938091B90090E0887F90708036CA
:100B2000910509F4F2C081369105CCF58832910522
:100B300009F47BC089329105B4F48031910509F440
:100B40006FC0813191053CF4009709F447C10897C3
:100B500009F04FC165C08831910509F466C08097DE
:100B600009F047C182C08034910509F4A4C08134E2
:100B7000910544F48033910509F482C0C89709F0C7
:100B800038C189C08035910509F489C0883591053F
:100B900009F496C08834910509F02BC1AEC088399C
:100BA000910509F413C189399105ECF48837910551
:100BB00009F4ABC0893791054CF48836910509F4E6
:100BC000A4C08037910509F014C19FC088389105F1
:100BD00009F4FCC08039910509F49DC08038910565
:100BE00009F007C198C0803B910509F4C6C0813B5C
:100BF00091054CF4803A910509F49FC0883A91051B
:100C000009F0F7C0BAC0803C910509F4E3C0883C04
:100C1000910509F4DFC0883B910509F0EAC0C2C024
:100C200080910C028093BB00CFC090913D028091D7
:100C30003E02981768F490913D02E92FF0E0ED5ED6
:100C4000FD4F80818093BB009F5F90933D02BCC0AD
:100C500080910D02882309F44BC085ED8093BC0080
:100C60008091BC0084FDFCCFC2C080E280939602DC
:100C700085ED8093BC008091BC0084FDFCCFB7C0A3
:100C800080E38093960285ED8093BC008091BC0048
:100C900084FDFCCFACC088E3809396029BC080911A
:100CA0003D029091BB00E82FF0E0ED5EFD4F908398
:100CB0008F5F80933D0290913D0280913E0282C001
:100CC00080913D029091BB00E82FF0E0ED5EFD4F7A
:100CD00090838F5F80933D0280910D02882341F0C5
:100CE00085ED8093BC008091BC0084FDFCCF7FC06B
:100CF00081E080930E0284EA6EC085ED8093BC0093
:100D00008091BC0084FDFCCF72C083E080930B0215
:100D10001092950259C0809195028A3208F056C00F
:100D2000809195029091BB00E82FF0E0E559FD4FCE
:100D300090838F5F8093950247C0809195028A329D
:100D400030F4E0919502F0E0E559FD4F108285ED19
:100D50008093BC008091BC0084FDFCCF10920B02FC
:100D600060919502E0911102F09112028BE692E0FF
:100D700070E00995109295022DC084E080930B02DB
:100D80001092690210926A02E0910F02F091100233
:100D9000099580916A02882329F481E080936A0290
:100DA00010923F0290916902E92FF0E0E15CFD4F63
:100DB00080818093BB009F5F90936902909169024C
:100DC00080916A02981710F485EC01C085E8809341
:100DD000BC000FC085EC8093BC0009C01092960245
:100DE00085ED8093BC008091BC0084FDFCCF109207
:100DF0000B02FF91EF91BF91AF919F918F917F91E6
:100E00006F915F914F913F912F910F900FBE0F9077
:100E10001F90189510920B0281E080930D021092A2
:100E20000E0282E161E00E945D0883E161E00E94C0
:100E30005D08E9EBF0E080818E7F808380818D7F8B
:100E4000808380E28093B80085E48093BC0008959D
:100E50001F920F920FB60F9211242F933F934F932F
:100E60005F936F937F938F939F93AF93BF932091E3
:100E70009B0230919C0240919D0250919E02709184
:100E80009F02DA01C9010296A11DB11D672F6A5F99
:100E90006D3730F06D57DA01C9010396A11DB11D00
:100EA00060939F0280939B0290939C02A0939D026B
:100EB000B0939E028091970290919802A09199021E
:100EC000B0919A020196A11DB11D80939702909353
:100ED0009802A0939902B0939A02BF91AF919F910B
:100EE0008F917F916F915F914F913F912F910F90D3
:100EF0000FBE0F901F9018958FB7F89420919B020A
:100F000030919C0240919D0250919E028FBFB90189
:100F1000CA0108959B01AC017FB7F89480919702B4
:100F200090919802A0919902B0919A0266B5A89BFF
:100F300005C06F3F19F00196A11DB11D7FBFBA2FEB
:100F4000A92F982F8827860F911DA11DB11D63E041
:100F5000880F991FAA1FBB1F6A95D1F7BC012DC02E
:100F6000FFB7F8948091970290919802A09199020E
:100F7000B0919A02E6B5A89B05C0EF3F19F0019623
:100F8000A11DB11DFFBFBA2FA92F982F88278E0F43
:100F9000911DA11DB11DE3E0880F991FAA1FBB1F62
:100FA000EA95D1F7861B970B885E9340C8F22150D3
:100FB00030404040504068517C4F2115310541057B
:100FC000510571F60895789484B5826084BD84B526
:100FD000816084BD85B5826085BD85B5816085BD34
:100FE000EEE6F0E0808181608083E1E8F0E010824D
:100FF000808182608083808181608083E0E8F0E08E
:10100000808181608083E1EBF0E080818460808377
:10101000E0EBF0E0808181608083EAE7F0E08081AE
:10102000846080838081826080838081816080830E
:101030008081806880831092C1000895CF93DF93F0
:10104000482F50E0CA0186569F4FFC0134914A5701
:101050005F4FFA018491882369F190E0880F991F0E
:10106000FC01E859FF4FA591B491FC01EE58FF4FE8
:10107000C591D491662351F42FB7F8948C91932F96
:10108000909589238C93888189230BC0623061F409
:101090002FB7F8948C91932F909589238C93888106
:1010A000832B88832FBF06C09FB7F8948C91832B26
:1010B0008C939FBFDF91CF910895482F50E0CA01D4
:1010C00082559F4FFC012491CA0186569F4FFC0117
:1010D00094914A575F4FFA013491332309F440C089
:1010E000222351F1233071F0243028F42130A1F073
:1010F000223011F514C02630B1F02730C1F0243071
:10110000D9F404C0809180008F7703C08091800063
:101110008F7D8093800010C084B58F7702C084B526
:101120008F7D84BD09C08091B0008F7703C080910E
:10113000B0008F7D8093B000E32FF0E0EE0FFF1F33
:10114000EE58FF4FA591B4912FB7F894662321F480
:101150008C919095892302C08C91892B8C932FBF01
:101160000895682F70E0CB0182559F4FFC012491B8
:10117000CB0186569F4FFC0144916A577F4FFB017C
:101180009491992319F420E030E03CC0222351F1DE
:10119000233071F0243028F42130A1F0223011F5F1
:1011A00014C02630B1F02730C1F02430D9F404C087
:1011B000809180008F7703C0809180008F7D809325
:1011C000800010C084B58F7702C084B58F7D84BD48
:1011D00009C08091B0008F7703C08091B0008F7DEF
:1011E0008093B000892F90E0880F991F84589F4FFB
:1011F000FC01A591B4918C9120E030E0842311F0A2
:1012000021E030E0C9010895CF93DF930E94E30706
:101210000E940701C0E0D0E00E94EC002097E1F3BB
:101220000E940000F9CFEE0FFF1F0590F491E02D12
:061230000994F894FFCFC1
:101236003132333435363738392A30230506070834
:101246000203043132333435000000003A04350419
:10125600310400000000FE04CD044B04540469046C
:021266007A0408
:00000001FF
